{
  "contractName": "UserFileStorage",
  "abi": [
    {
      "inputs": [
        {
          "internalType": "string",
          "name": "fileHash",
          "type": "string"
        },
        {
          "internalType": "string",
          "name": "fileName",
          "type": "string"
        }
      ],
      "name": "uploadFile",
      "outputs": [],
      "stateMutability": "nonpayable",
      "type": "function"
    },
    {
      "inputs": [
        {
          "internalType": "string",
          "name": "transactionHash",
          "type": "string"
        },
        {
          "internalType": "string",
          "name": "fileHash",
          "type": "string"
        }
      ],
      "name": "mapTransactionToIPFS",
      "outputs": [],
      "stateMutability": "nonpayable",
      "type": "function"
    },
    {
      "inputs": [],
      "name": "getUserFileCount",
      "outputs": [
        {
          "internalType": "uint256",
          "name": "",
          "type": "uint256"
        }
      ],
      "stateMutability": "view",
      "type": "function",
      "constant": true
    },
    {
      "inputs": [
        {
          "internalType": "uint256",
          "name": "index",
          "type": "uint256"
        }
      ],
      "name": "getUserFile",
      "outputs": [
        {
          "internalType": "string",
          "name": "",
          "type": "string"
        },
        {
          "internalType": "string",
          "name": "",
          "type": "string"
        },
        {
          "internalType": "uint256",
          "name": "",
          "type": "uint256"
        }
      ],
      "stateMutability": "view",
      "type": "function",
      "constant": true
    },
    {
      "inputs": [
        {
          "internalType": "string",
          "name": "transactionHash",
          "type": "string"
        }
      ],
      "name": "getFileHashByTransaction",
      "outputs": [
        {
          "internalType": "string",
          "name": "",
          "type": "string"
        }
      ],
      "stateMutability": "view",
      "type": "function",
      "constant": true
    },
    {
      "inputs": [
        {
          "internalType": "string",
          "name": "transactionHash",
          "type": "string"
        }
      ],
      "name": "getUserFileHashByTransaction",
      "outputs": [
        {
          "internalType": "string",
          "name": "",
          "type": "string"
        }
      ],
      "stateMutability": "view",
      "type": "function",
      "constant": true
    },
    {
      "inputs": [],
      "name": "getAllFileHashes",
      "outputs": [
        {
          "internalType": "string[]",
          "name": "",
          "type": "string[]"
        },
        {
          "internalType": "string[]",
          "name": "",
          "type": "string[]"
        },
        {
          "internalType": "uint256[]",
          "name": "",
          "type": "uint256[]"
        }
      ],
      "stateMutability": "view",
      "type": "function",
      "constant": true
    },
    {
      "inputs": [
        {
          "internalType": "string",
          "name": "fileHash",
          "type": "string"
        }
      ],
      "name": "deleteFile",
      "outputs": [],
      "stateMutability": "nonpayable",
      "type": "function"
    },
    {
      "inputs": [
        {
          "internalType": "string",
          "name": "fileHash",
          "type": "string"
        },
        {
          "internalType": "string",
          "name": "newFileName",
          "type": "string"
        }
      ],
      "name": "updateFileMetadata",
      "outputs": [],
      "stateMutability": "nonpayable",
      "type": "function"
    },
    {
      "inputs": [
        {
          "internalType": "string",
          "name": "fileHash",
          "type": "string"
        }
      ],
      "name": "verifyFile",
      "outputs": [
        {
          "internalType": "bool",
          "name": "",
          "type": "bool"
        }
      ],
      "stateMutability": "view",
      "type": "function",
      "constant": true
    },
    {
      "inputs": [
        {
          "internalType": "string",
          "name": "fileHash",
          "type": "string"
        }
      ],
      "name": "getFileMetadata",
      "outputs": [
        {
          "internalType": "string",
          "name": "fileName",
          "type": "string"
        },
        {
          "internalType": "uint256",
          "name": "timestamp",
          "type": "uint256"
        },
        {
          "internalType": "address",
          "name": "owner",
          "type": "address"
        }
      ],
      "stateMutability": "view",
      "type": "function",
      "constant": true
    },
    {
      "inputs": [
        {
          "internalType": "string",
          "name": "transactionHash",
          "type": "string"
        }
      ],
      "name": "getTransactionDetails",
      "outputs": [
        {
          "internalType": "string",
          "name": "fileHash",
          "type": "string"
        },
        {
          "internalType": "address",
          "name": "uploader",
          "type": "address"
        },
        {
          "internalType": "uint256",
          "name": "timestamp",
          "type": "uint256"
        }
      ],
      "stateMutability": "view",
      "type": "function",
      "constant": true
    },
    {
      "inputs": [
        {
          "internalType": "address",
          "name": "userAddress",
          "type": "address"
        },
        {
          "internalType": "string",
          "name": "searchPattern",
          "type": "string"
        }
      ],
      "name": "searchFiles",
      "outputs": [
        {
          "internalType": "string[]",
          "name": "fileHashes",
          "type": "string[]"
        },
        {
          "internalType": "string[]",
          "name": "fileNames",
          "type": "string[]"
        }
      ],
      "stateMutability": "view",
      "type": "function",
      "constant": true
    }
  ],
  "bytecode": "0x608060405234801561001057600080fd5b50611e1b806100206000396000f3fe608060405234801561001057600080fd5b50600436106100cf5760003560e01c80639b7ae6d21161008c578063e4daff8f11610066578063e4daff8f146101c8578063eadca3c9146101ea578063fe8712e7146101fd578063ff04367a1461021b57600080fd5b80639b7ae6d214610172578063a991005414610192578063b0271023146101a557600080fd5b80630570e914146100d45780631f985003146100e957806321d0daea1461011457806387fac2eb146101275780638d95cd7014610148578063996d50bf1461015f575b600080fd5b6100e76100e236600461178a565b61023d565b005b6100fc6100f73660046117ee565b610377565b60405161010b9392919061187b565b60405180910390f35b6100e761012236600461178a565b6104ef565b61013a6101353660046118ae565b6105d7565b60405161010b929190611958565b610150610a13565b60405161010b93929190611986565b6100e761016d36600461178a565b610cfd565b6101856101803660046117ee565b610d8b565b60405161010b91906119ef565b6100e76101a03660046117ee565b610edd565b6101b86101b33660046117ee565b61109e565b604051901515815260200161010b565b6101db6101d63660046117ee565b611145565b60405161010b93929190611a09565b6101856101f83660046117ee565b611342565b3360009081526020819052604090205460405190815260200161010b565b61022e610229366004611a37565b6113ce565b60405161010b93929190611a50565b60008151116102935760405162461bcd60e51b815260206004820152601960248201527f46696c6520686173682063616e6e6f7420626520656d7074790000000000000060448201526064015b60405180910390fd5b6002826040516102a39190611a86565b908152602001604051809103902080546102bc90611aa2565b15905061030b5760405162461bcd60e51b815260206004820152601f60248201527f5472616e73616374696f6e206861736820616c7265616479206d617070656400604482015260640161028a565b8060028360405161031c9190611a86565b908152602001604051809103902090816103369190611b2a565b5033600090815260036020526040908190209051829190610358908590611a86565b908152602001604051809103902090816103729190611b2a565b505050565b33600090815260208190526040812054606091908190815b818110156104cf57856040516020016103a89190611a86565b60408051601f1981840301815282825280516020918201203360009081526001835283812086825283529290922091926103e3929101611bea565b60405160208183030381529060405280519060200120036104bd57336000818152600160208181526040808420868552909152909120600281015491018054909290839061043090611aa2565b80601f016020809104026020016040519081016040528092919081815260200182805461045c90611aa2565b80156104a95780601f1061047e576101008083540402835291602001916104a9565b820191906000526020600020905b81548152906001019060200180831161048c57829003601f168201915b5050505050925094509450945050506104e8565b806104c781611c76565b91505061038f565b5060405162461bcd60e51b815260040161028a90611c8f565b9193909250565b3360009081526020819052604081205490805b828110156105b3578460405160200161051b9190611a86565b60408051601f198184030181528282528051602091820120336000908152600183528381208682528352929092209192610556929101611bea565b60405160208183030381529060405280519060200120036105a157336000908152600160208181526040808420858552909152909120016105978582611b2a565b50600191506105b3565b806105ab81611c76565b915050610502565b50806105d15760405162461bcd60e51b815260040161028a90611c8f565b50505050565b6001600160a01b0382166000908152602081905260408120546060918291815b818110156106dd576001600160a01b03871660009081526001602081815260408084208585529091529091200180546106b8919061063490611aa2565b80601f016020809104026020016040519081016040528092919081815260200182805461066090611aa2565b80156106ad5780601f10610682576101008083540402835291602001916106ad565b820191906000526020600020905b81548152906001019060200180831161069057829003601f168201915b50505050508761159d565b156106cb57826106c781611c76565b9350505b806106d581611c76565b9150506105f7565b508167ffffffffffffffff8111156106f7576106f76116e7565b60405190808252806020026020018201604052801561072a57816020015b60608152602001906001900390816107155790505b5093508167ffffffffffffffff811115610746576107466116e7565b60405190808252806020026020018201604052801561077957816020015b60608152602001906001900390816107645790505b5092506000805b828110801561078e57508382105b15610a08576001600160a01b038816600090815260016020818152604080842085855290915290912001805461084c91906107c890611aa2565b80601f01602080910402602001604051908101604052809291908181526020018280546107f490611aa2565b80156108415780601f1061081657610100808354040283529160200191610841565b820191906000526020600020905b81548152906001019060200180831161082457829003601f168201915b50505050508861159d565b156109f6576001600160a01b03881660009081526001602090815260408083208484529091529020805461087f90611aa2565b80601f01602080910402602001604051908101604052809291908181526020018280546108ab90611aa2565b80156108f85780601f106108cd576101008083540402835291602001916108f8565b820191906000526020600020905b8154815290600101906020018083116108db57829003601f168201915b505050505086838151811061090f5761090f611cb7565b6020908102919091018101919091526001600160a01b03891660009081526001808352604080832085845290935291902001805461094c90611aa2565b80601f016020809104026020016040519081016040528092919081815260200182805461097890611aa2565b80156109c55780601f1061099a576101008083540402835291602001916109c5565b820191906000526020600020905b8154815290600101906020018083116109a857829003601f168201915b50505050508583815181106109dc576109dc611cb7565b602002602001018190525081806109f290611c76565b9250505b80610a0081611c76565b915050610780565b505050509250929050565b33600090815260208190526040812054606091829182918167ffffffffffffffff811115610a4357610a436116e7565b604051908082528060200260200182016040528015610a7657816020015b6060815260200190600190039081610a615790505b50905060008267ffffffffffffffff811115610a9457610a946116e7565b604051908082528060200260200182016040528015610ac757816020015b6060815260200190600190039081610ab25790505b50905060008367ffffffffffffffff811115610ae557610ae56116e7565b604051908082528060200260200182016040528015610b0e578160200160208202803683370190505b50905060005b84811015610cef5733600090815260016020908152604080832084845290915290208054610b4190611aa2565b80601f0160208091040260200160405190810160405280929190818152602001828054610b6d90611aa2565b8015610bba5780601f10610b8f57610100808354040283529160200191610bba565b820191906000526020600020905b815481529060010190602001808311610b9d57829003601f168201915b5050505050848281518110610bd157610bd1611cb7565b60209081029190910181019190915233600090815260018083526040808320858452909352919020018054610c0590611aa2565b80601f0160208091040260200160405190810160405280929190818152602001828054610c3190611aa2565b8015610c7e5780601f10610c5357610100808354040283529160200191610c7e565b820191906000526020600020905b815481529060010190602001808311610c6157829003601f168201915b5050505050838281518110610c9557610c95611cb7565b60209081029190910181019190915233600090815260018252604080822084835290925220600201548251839083908110610cd257610cd2611cb7565b602090810291909101015280610ce781611c76565b915050610b14565b509196909550909350915050565b3360008181526020818152604080832054815160608101835287815280840187905242818401529484526001835281842081855290925290912082519192918190610d489082611b2a565b5060208201516001820190610d5d9082611b2a565b5060409190910151600290910155610d76816001611ccd565b33600090815260208190526040902055505050565b3360009081526003602052604080822090516060929190610dad908590611a86565b90815260200160405180910390208054610dc690611aa2565b905011610e215760405162461bcd60e51b815260206004820152602360248201527f5472616e73616374696f6e2068617368206e6f7420666f756e6420666f72207560448201526239b2b960e91b606482015260840161028a565b33600090815260036020526040908190209051610e3f908490611a86565b90815260200160405180910390208054610e5890611aa2565b80601f0160208091040260200160405190810160405280929190818152602001828054610e8490611aa2565b8015610ed15780601f10610ea657610100808354040283529160200191610ed1565b820191906000526020600020905b815481529060010190602001808311610eb457829003601f168201915b50505050509050919050565b3360009081526020819052604081205490805b828110156110805783604051602001610f099190611a86565b60408051601f198184030181528282528051602091820120336000908152600183528381208682528352929092209192610f44929101611bea565b604051602081830303815290604052805190602001200361106e5760019150805b610f70600185611ce0565b811015610ff55733600090815260016020819052604082209190610f95908490611ccd565b815260208082019290925260409081016000908120338252600184528282208583529093522080610fc68382611cf3565b50600181810190610fd990840182611cf3565b5060029182015491015580610fed81611c76565b915050610f65565b50336000908152600160208190526040822091906110139086611ce0565b8152602001908152602001600020600080820160006110329190611691565b611040600183016000611691565b50600060029190910181905533815260208190526040812080549161106483611dce565b9190505550611080565b8061107881611c76565b915050610ef0565b50806103725760405162461bcd60e51b815260040161028a90611c8f565b33600090815260208190526040812054815b8181101561113b57836040516020016110c99190611a86565b60408051601f198184030181528282528051602091820120336000908152600183528381208682528352929092209192611104929101611bea565b6040516020818303038152906040528051906020012003611129575060019392505050565b8061113381611c76565b9150506110b0565b5060009392505050565b6060600080600060028560405161115c9190611a86565b9081526020016040518091039020805461117590611aa2565b80601f01602080910402602001604051908101604052809291908181526020018280546111a190611aa2565b80156111ee5780601f106111c3576101008083540402835291602001916111ee565b820191906000526020600020905b8154815290600101906020018083116111d157829003601f168201915b50505050509050600081511161123e5760405162461bcd60e51b8152602060048201526015602482015274151c985b9cd858dd1a5bdb881b9bdd08199bdd5b99605a1b604482015260640161028a565b33600090815260208190526040812054905b8181101561130057826040516020016112699190611a86565b60408051601f1981840301815282825280516020918201203360009081526001835283812086825283529290922091926112a4929101611bea565b60405160208183030381529060405280519060200120036112ee57336000818152600160209081526040808320948352939052919091206002015492955093509091506104e89050565b806112f881611c76565b915050611250565b5060405162461bcd60e51b8152602060048201526016602482015275119a5b194819195d185a5b1cc81b9bdd08199bdd5b9960521b604482015260640161028a565b606060006002836040516113569190611a86565b9081526020016040518091039020805461136f90611aa2565b9050116113be5760405162461bcd60e51b815260206004820152601a60248201527f5472616e73616374696f6e2068617368206e6f7420666f756e64000000000000604482015260640161028a565b600282604051610e3f9190611a86565b33600090815260208190526040812054606091829184106114315760405162461bcd60e51b815260206004820152601860248201527f46696c6520696e646578206f7574206f6620626f756e64730000000000000000604482015260640161028a565b33600090815260016020908152604080832087845290915280822081516060810190925280548290829061146490611aa2565b80601f016020809104026020016040519081016040528092919081815260200182805461149090611aa2565b80156114dd5780601f106114b2576101008083540402835291602001916114dd565b820191906000526020600020905b8154815290600101906020018083116114c057829003601f168201915b505050505081526020016001820180546114f690611aa2565b80601f016020809104026020016040519081016040528092919081815260200182805461152290611aa2565b801561156f5780601f106115445761010080835404028352916020019161156f565b820191906000526020600020905b81548152906001019060200180831161155257829003601f168201915b5050509183525050600291909101546020918201528151908201516040909201519097919650945092505050565b80516000908390839083036115b75760019250505061168b565b8051825110156115cc5760009250505061168b565b60005b815183516115dd9190611ce0565b811161168357600160005b835181101561165c5783818151811061160357611603611cb7565b01602001516001600160f81b0319168561161d8386611ccd565b8151811061162d5761162d611cb7565b01602001516001600160f81b0319161461164a576000915061165c565b8061165481611c76565b9150506115e8565b50801561167057600194505050505061168b565b508061167b81611c76565b9150506115cf565b506000925050505b92915050565b50805461169d90611aa2565b6000825580601f106116ad575050565b601f0160209004906000526020600020908101906116cb91906116ce565b50565b5b808211156116e357600081556001016116cf565b5090565b634e487b7160e01b600052604160045260246000fd5b600082601f83011261170e57600080fd5b813567ffffffffffffffff80821115611729576117296116e7565b604051601f8301601f19908116603f01168101908282118183101715611751576117516116e7565b8160405283815286602085880101111561176a57600080fd5b836020870160208301376000602085830101528094505050505092915050565b6000806040838503121561179d57600080fd5b823567ffffffffffffffff808211156117b557600080fd5b6117c1868387016116fd565b935060208501359150808211156117d757600080fd5b506117e4858286016116fd565b9150509250929050565b60006020828403121561180057600080fd5b813567ffffffffffffffff81111561181757600080fd5b611823848285016116fd565b949350505050565b60005b8381101561184657818101518382015260200161182e565b50506000910152565b6000815180845261186781602086016020860161182b565b601f01601f19169290920160200192915050565b60608152600061188e606083018661184f565b6020830194909452506001600160a01b0391909116604090910152919050565b600080604083850312156118c157600080fd5b82356001600160a01b03811681146118d857600080fd5b9150602083013567ffffffffffffffff8111156118f457600080fd5b6117e4858286016116fd565b600082825180855260208086019550808260051b84010181860160005b8481101561194b57601f1986840301895261193983835161184f565b9884019892509083019060010161191d565b5090979650505050505050565b60408152600061196b6040830185611900565b828103602084015261197d8185611900565b95945050505050565b6060815260006119996060830186611900565b6020838203818501526119ac8287611900565b8481036040860152855180825282870193509082019060005b818110156119e1578451835293830193918301916001016119c5565b509098975050505050505050565b602081526000611a02602083018461184f565b9392505050565b606081526000611a1c606083018661184f565b6001600160a01b039490941660208301525060400152919050565b600060208284031215611a4957600080fd5b5035919050565b606081526000611a63606083018661184f565b8281036020840152611a75818661184f565b915050826040830152949350505050565b60008251611a9881846020870161182b565b9190910192915050565b600181811c90821680611ab657607f821691505b602082108103611ad657634e487b7160e01b600052602260045260246000fd5b50919050565b601f82111561037257600081815260208120601f850160051c81016020861015611b035750805b601f850160051c820191505b81811015611b2257828155600101611b0f565b505050505050565b815167ffffffffffffffff811115611b4457611b446116e7565b611b5881611b528454611aa2565b84611adc565b602080601f831160018114611b8d5760008415611b755750858301515b600019600386901b1c1916600185901b178555611b22565b600085815260208120601f198616915b82811015611bbc57888601518255948401946001909101908401611b9d565b5085821015611bda5787850151600019600388901b60f8161c191681555b5050505050600190811b01905550565b6000808354611bf881611aa2565b60018281168015611c105760018114611c2557611c54565b60ff1984168752821515830287019450611c54565b8760005260208060002060005b85811015611c4b5781548a820152908401908201611c32565b50505082870194505b50929695505050505050565b634e487b7160e01b600052601160045260246000fd5b600060018201611c8857611c88611c60565b5060010190565b6020808252600e908201526d119a5b19481b9bdd08199bdd5b9960921b604082015260600190565b634e487b7160e01b600052603260045260246000fd5b8082018082111561168b5761168b611c60565b8181038181111561168b5761168b611c60565b818103611cfe575050565b611d088254611aa2565b67ffffffffffffffff811115611d2057611d206116e7565b611d2e81611b528454611aa2565b6000601f821160018114611d625760008315611d4a5750848201545b600019600385901b1c1916600184901b178455611dc7565b600085815260209020601f19841690600086815260209020845b83811015611d9c5782860154825560019586019590910190602001611d7c565b5085831015611dba5781850154600019600388901b60f8161c191681555b50505060018360011b0184555b5050505050565b600081611ddd57611ddd611c60565b50600019019056fea264697066735822122088b5946e26966936d7865b1cd948b1c08529f24823b24178a95009bb09c3b35864736f6c63430008150033",
  "immutableReferences": {},
  "source": "// SPDX-License-Identifier: MIT\r\npragma solidity >=0.8.0;\r\n\r\ncontract UserFileStorage {\r\n    struct File {\r\n        string fileHash; // IPFS hash\r\n        string fileName;\r\n        uint256 timestamp;\r\n    }\r\n\r\n    // Use a count to keep track of files per user\r\n    mapping(address => uint256) private userFileCount;\r\n    // Map user address and file index to file\r\n    mapping(address => mapping(uint256 => File)) private userFiles;\r\n\r\n    // Global mapping: transaction hash => IPFS hash\r\n    mapping(string => string) private transactionToFileHash;\r\n\r\n    // User-based mapping: user => (transaction hash => IPFS hash)\r\n    mapping(address => mapping(string => string))\r\n        private userTransactionToFileHash;\r\n\r\n    // Upload a file\r\n    function uploadFile(string memory fileHash, string memory fileName) public {\r\n        uint256 currentCount = userFileCount[msg.sender];\r\n        userFiles[msg.sender][currentCount] = File(\r\n            fileHash,\r\n            fileName,\r\n            block.timestamp\r\n        );\r\n        userFileCount[msg.sender] = currentCount + 1;\r\n    }\r\n\r\n    // Map transaction hash to IPFS hash globally and for the user\r\n    function mapTransactionToIPFS(\r\n        string memory transactionHash,\r\n        string memory fileHash\r\n    ) public {\r\n        require(bytes(fileHash).length > 0, \"File hash cannot be empty\");\r\n        require(\r\n            bytes(transactionToFileHash[transactionHash]).length == 0,\r\n            \"Transaction hash already mapped\"\r\n        );\r\n\r\n        transactionToFileHash[transactionHash] = fileHash;\r\n        userTransactionToFileHash[msg.sender][transactionHash] = fileHash;\r\n    }\r\n\r\n    // Get total count of user files\r\n    function getUserFileCount() public view returns (uint256) {\r\n        return userFileCount[msg.sender];\r\n    }\r\n\r\n    // Get a specific file by index\r\n    function getUserFile(\r\n        uint256 index\r\n    ) public view returns (string memory, string memory, uint256) {\r\n        require(index < userFileCount[msg.sender], \"File index out of bounds\");\r\n        File memory file = userFiles[msg.sender][index];\r\n        return (file.fileHash, file.fileName, file.timestamp);\r\n    }\r\n\r\n    // Retrieve file hash by transaction hash (global)\r\n    function getFileHashByTransaction(\r\n        string memory transactionHash\r\n    ) public view returns (string memory) {\r\n        require(\r\n            bytes(transactionToFileHash[transactionHash]).length > 0,\r\n            \"Transaction hash not found\"\r\n        );\r\n        return transactionToFileHash[transactionHash];\r\n    }\r\n\r\n    // Retrieve file hash by transaction hash for sender\r\n    function getUserFileHashByTransaction(\r\n        string memory transactionHash\r\n    ) public view returns (string memory) {\r\n        require(\r\n            bytes(userTransactionToFileHash[msg.sender][transactionHash])\r\n                .length > 0,\r\n            \"Transaction hash not found for user\"\r\n        );\r\n        return userTransactionToFileHash[msg.sender][transactionHash];\r\n    }\r\n\r\n    // Retrieve all file hashes for the sender\r\n    function getAllFileHashes()\r\n        public\r\n        view\r\n        returns (string[] memory, string[] memory, uint256[] memory)\r\n    {\r\n        uint256 fileCount = userFileCount[msg.sender];\r\n        string[] memory fileHashes = new string[](fileCount);\r\n        string[] memory fileNames = new string[](fileCount);\r\n        uint256[] memory timestamps = new uint256[](fileCount);\r\n\r\n        for (uint256 i = 0; i < fileCount; i++) {\r\n            fileHashes[i] = userFiles[msg.sender][i].fileHash;\r\n            fileNames[i] = userFiles[msg.sender][i].fileName;\r\n            timestamps[i] = userFiles[msg.sender][i].timestamp;\r\n        }\r\n\r\n        return (fileHashes, fileNames, timestamps);\r\n    }\r\n\r\n    // Delete a file by its IPFS hash\r\n    function deleteFile(string memory fileHash) public {\r\n        uint256 fileCount = userFileCount[msg.sender];\r\n        bool fileFound = false;\r\n\r\n        for (uint256 i = 0; i < fileCount; i++) {\r\n            if (\r\n                keccak256(\r\n                    abi.encodePacked(userFiles[msg.sender][i].fileHash)\r\n                ) == keccak256(abi.encodePacked(fileHash))\r\n            ) {\r\n                fileFound = true;\r\n                // Shift the remaining files to fill the gap\r\n                for (uint256 j = i; j < fileCount - 1; j++) {\r\n                    userFiles[msg.sender][j] = userFiles[msg.sender][j + 1];\r\n                }\r\n                delete userFiles[msg.sender][fileCount - 1];\r\n                userFileCount[msg.sender]--;\r\n                break;\r\n            }\r\n        }\r\n\r\n        require(fileFound, \"File not found\");\r\n    }\r\n\r\n    // Update metadata for a file by its IPFS hash\r\n    function updateFileMetadata(\r\n        string memory fileHash,\r\n        string memory newFileName\r\n    ) public {\r\n        uint256 fileCount = userFileCount[msg.sender];\r\n        bool fileFound = false;\r\n\r\n        for (uint256 i = 0; i < fileCount; i++) {\r\n            if (\r\n                keccak256(\r\n                    abi.encodePacked(userFiles[msg.sender][i].fileHash)\r\n                ) == keccak256(abi.encodePacked(fileHash))\r\n            ) {\r\n                userFiles[msg.sender][i].fileName = newFileName;\r\n                fileFound = true;\r\n                break;\r\n            }\r\n        }\r\n\r\n        require(fileFound, \"File not found\");\r\n    }\r\n\r\n    // Verify if a file exists on the blockchain by its IPFS hash\r\n    function verifyFile(string memory fileHash) public view returns (bool) {\r\n        uint256 fileCount = userFileCount[msg.sender];\r\n\r\n        for (uint256 i = 0; i < fileCount; i++) {\r\n            if (\r\n                keccak256(\r\n                    abi.encodePacked(userFiles[msg.sender][i].fileHash)\r\n                ) == keccak256(abi.encodePacked(fileHash))\r\n            ) {\r\n                return true;\r\n            }\r\n        }\r\n\r\n        return false;\r\n    }\r\n\r\n    // Get detailed metadata for a file\r\n    function getFileMetadata(\r\n        string memory fileHash\r\n    )\r\n        public\r\n        view\r\n        returns (string memory fileName, uint256 timestamp, address owner)\r\n    {\r\n        uint256 fileCount = userFileCount[msg.sender];\r\n        for (uint256 i = 0; i < fileCount; i++) {\r\n            if (\r\n                keccak256(\r\n                    abi.encodePacked(userFiles[msg.sender][i].fileHash)\r\n                ) == keccak256(abi.encodePacked(fileHash))\r\n            ) {\r\n                return (\r\n                    userFiles[msg.sender][i].fileName,\r\n                    userFiles[msg.sender][i].timestamp,\r\n                    msg.sender\r\n                );\r\n            }\r\n        }\r\n        revert(\"File not found\");\r\n    }\r\n\r\n    // Get transaction details\r\n    function getTransactionDetails(\r\n        string memory transactionHash\r\n    )\r\n        public\r\n        view\r\n        returns (string memory fileHash, address uploader, uint256 timestamp)\r\n    {\r\n        string memory associatedFileHash = transactionToFileHash[\r\n            transactionHash\r\n        ];\r\n        require(bytes(associatedFileHash).length > 0, \"Transaction not found\");\r\n\r\n        uint256 fileCount = userFileCount[msg.sender];\r\n        for (uint256 i = 0; i < fileCount; i++) {\r\n            if (\r\n                keccak256(\r\n                    abi.encodePacked(userFiles[msg.sender][i].fileHash)\r\n                ) == keccak256(abi.encodePacked(associatedFileHash))\r\n            ) {\r\n                return (\r\n                    associatedFileHash,\r\n                    msg.sender,\r\n                    userFiles[msg.sender][i].timestamp\r\n                );\r\n            }\r\n        }\r\n        revert(\"File details not found\");\r\n    }\r\n\r\n    // Search files by name pattern\r\n    function searchFiles(\r\n        address userAddress,\r\n        string memory searchPattern\r\n    )\r\n        public\r\n        view\r\n        returns (string[] memory fileHashes, string[] memory fileNames)\r\n    {\r\n        uint256 matchCount = 0;\r\n        uint256 fileCount = userFileCount[userAddress];\r\n\r\n        // First count matches\r\n        for (uint256 i = 0; i < fileCount; i++) {\r\n            if (contains(userFiles[userAddress][i].fileName, searchPattern)) {\r\n                matchCount++;\r\n            }\r\n        }\r\n\r\n        // Initialize arrays with correct size\r\n        fileHashes = new string[](matchCount);\r\n        fileNames = new string[](matchCount);\r\n\r\n        // Fill arrays with matching files\r\n        uint256 currentIndex = 0;\r\n        for (uint256 i = 0; i < fileCount && currentIndex < matchCount; i++) {\r\n            if (contains(userFiles[userAddress][i].fileName, searchPattern)) {\r\n                fileHashes[currentIndex] = userFiles[userAddress][i].fileHash;\r\n                fileNames[currentIndex] = userFiles[userAddress][i].fileName;\r\n                currentIndex++;\r\n            }\r\n        }\r\n\r\n        return (fileHashes, fileNames);\r\n    }\r\n\r\n    // Helper function to check if a string contains a pattern\r\n    function contains(\r\n        string memory source,\r\n        string memory pattern\r\n    ) internal pure returns (bool) {\r\n        bytes memory sourceBytes = bytes(source);\r\n        bytes memory patternBytes = bytes(pattern);\r\n\r\n        if (patternBytes.length == 0) {\r\n            return true;\r\n        }\r\n\r\n        if (sourceBytes.length < patternBytes.length) {\r\n            return false;\r\n        }\r\n\r\n        for (uint i = 0; i <= sourceBytes.length - patternBytes.length; i++) {\r\n            bool found = true;\r\n            for (uint j = 0; j < patternBytes.length; j++) {\r\n                if (sourceBytes[i + j] != patternBytes[j]) {\r\n                    found = false;\r\n                    break;\r\n                }\r\n            }\r\n            if (found) {\r\n                return true;\r\n            }\r\n        }\r\n        return false;\r\n    }\r\n}\r\n",
  "sourcePath": "/contracts/contracts\\UserFileStorage.sol",
  "compiler": {
    "name": "solc",
    "version": "0.8.21+commit.d9974bed.Emscripten.clang"
  },
  "schemaVersion": "3.4.16",
  "updatedAt": "2026-03-15T07:55:47.177Z",
  "networkType": "ethereum",
  "devdoc": {
    "kind": "dev",
    "methods": {},
    "version": 1
  },
  "userdoc": {
    "kind": "user",
    "methods": {},
    "version": 1
  }
}