{
    "contractName": "UserFileStorage",
    "abi": [
        {
            "inputs": [],
            "name": "getAllFileHashes",
            "outputs": [
                {
                    "internalType": "string[]",
                    "name": "",
                    "type": "string[]"
                }
            ],
            "stateMutability": "view",
            "type": "function"
        },
        {
            "inputs": [
                {
                    "internalType": "string",
                    "name": "transactionHash",
                    "type": "string"
                }
            ],
            "name": "getFileHashByTransaction",
            "outputs": [
                {
                    "internalType": "string",
                    "name": "",
                    "type": "string"
                }
            ],
            "stateMutability": "view",
            "type": "function"
        },
        {
            "inputs": [
                {
                    "internalType": "uint256",
                    "name": "index",
                    "type": "uint256"
                }
            ],
            "name": "getUserFile",
            "outputs": [
                {
                    "internalType": "string",
                    "name": "",
                    "type": "string"
                },
                {
                    "internalType": "string",
                    "name": "",
                    "type": "string"
                },
                {
                    "internalType": "uint256",
                    "name": "",
                    "type": "uint256"
                }
            ],
            "stateMutability": "view",
            "type": "function"
        },
        {
            "inputs": [],
            "name": "getUserFileCount",
            "outputs": [
                {
                    "internalType": "uint256",
                    "name": "",
                    "type": "uint256"
                }
            ],
            "stateMutability": "view",
            "type": "function"
        },
        {
            "inputs": [
                {
                    "internalType": "string",
                    "name": "transactionHash",
                    "type": "string"
                }
            ],
            "name": "getUserFileHashByTransaction",
            "outputs": [
                {
                    "internalType": "string",
                    "name": "",
                    "type": "string"
                }
            ],
            "stateMutability": "view",
            "type": "function"
        },
        {
            "inputs": [
                {
                    "internalType": "string",
                    "name": "transactionHash",
                    "type": "string"
                },
                {
                    "internalType": "string",
                    "name": "fileHash",
                    "type": "string"
                }
            ],
            "name": "mapTransactionToIPFS",
            "outputs": [],
            "stateMutability": "nonpayable",
            "type": "function"
        },
        {
            "inputs": [
                {
                    "internalType": "string",
                    "name": "fileHash",
                    "type": "string"
                },
                {
                    "internalType": "string",
                    "name": "fileName",
                    "type": "string"
                }
            ],
            "name": "uploadFile",
            "outputs": [],
            "stateMutability": "nonpayable",
            "type": "function"
        }
    ],
    "bytecode": "60808060405234601557610c50908161001a8239f35b5f80fdfe60806040526004361015610011575f80fd5b5f3560e01c80630570e914146106e25780638d95cd70146105d7578063996d50bf1461031d5780639b7ae6d214610257578063eadca3c91461017b578063fe8712e7146101555763ff04367a14610066575f80fd5b3461015157602036600319011261015157600435335f525f60205260405f205481101561010c57335f52600160205260405f20905f526020526100f460405f206040516100b2816109dc565b6100bb82610b7a565b815261010260026100ce60018501610b7a565b938460208501520154918260408201525192604051948594606086526060860190610abf565b908482036020860152610abf565b9060408301520390f35b60405162461bcd60e51b815260206004820152601860248201527f46696c6520696e646578206f7574206f6620626f756e647300000000000000006044820152606490fd5b5f80fd5b34610151575f36600319011261015157335f525f602052602060405f2054604051908152f35b346101515760203660031901126101515760043567ffffffffffffffff8111610151576101ac903690600401610a1a565b604051906101d1815192602081818501958087835e8101600281520301902054610b02565b156102125761020e9160206101fa92604051928391518091835e81016002815203019020610b7a565b604051918291602083526020830190610abf565b0390f35b60405162461bcd60e51b815260206004820152601a60248201527f5472616e73616374696f6e2068617368206e6f7420666f756e640000000000006044820152606490fd5b346101515760203660031901126101515760043567ffffffffffffffff811161015157610288903690600401610a1a565b335f5260036020526102a66102a060405f2083610ae3565b54610b02565b156102cc576101fa6102c761020e92335f52600360205260405f2090610ae3565b610b7a565b60405162461bcd60e51b815260206004820152602360248201527f5472616e73616374696f6e2068617368206e6f7420666f756e6420666f72207560448201526239b2b960e91b6064820152608490fd5b346101515761032b36610a70565b90335f525f60205260405f20549160405191610346836109dc565b8252602082019081526040820190428252335f52600160205260405f20845f5260205260405f20925180519067ffffffffffffffff821161050557819061038d8654610b02565b601f8111610587575b50602090601f8311600114610524575f92610519575b50508160011b915f199060031b1c19161783555b518051600184019167ffffffffffffffff8211610505576103e18354610b02565b601f81116104c0575b50602090601f8311600114610459576002949392915f918361044e575b50508160011b915f199060031b1c19161790555b519101556001810180911161043a57335f525f60205260405f20555f80f35b634e487b7160e01b5f52601160045260245ffd5b015190508780610407565b90601f19831691845f52815f20925f5b8181106104a8575091600193918560029897969410610490575b505050811b01905561041b565b01515f1960f88460031b161c19169055878080610483565b92936020600181928786015181550195019301610469565b835f5260205f20601f840160051c810191602085106104fb575b601f0160051c01905b8181106104f057506103ea565b5f81556001016104e3565b90915081906104da565b634e487b7160e01b5f52604160045260245ffd5b0151905086806103ac565b5f8781528281209350601f198516905b81811061056f5750908460019594939210610557575b505050811b0183556103c0565b01515f1960f88460031b161c1916905586808061054a565b92936020600181928786015181550195019301610534565b909150855f5260205f20601f840160051c810191602085106105cd575b90601f859493920160051c01905b8181106105bf5750610396565b5f81558493506001016105b2565b90915081906105a4565b34610151575f36600319011261015157335f525f60205260405f20546105fc81610b3a565b9061060a60405192836109f8565b808252601f1961061982610b3a565b015f5b8181106106d15750505f5b81811061069557826040518091602082016020835281518091526040830190602060408260051b8601019301915f905b82821061066657505050500390f35b919360019193955060206106858192603f198a82030186528851610abf565b9601920192018594939192610657565b600190335f528160205260405f20815f526020526106b560405f20610b7a565b6106bf8286610b52565b526106ca8185610b52565b5001610627565b80606060208093870101520161061c565b34610151576106f036610a70565b8051156109975760405161071b835191602081818701948086835e8101600281520301902054610b02565b610952576020604051809285518091835e810160028152030190209181519267ffffffffffffffff8411610505576107538154610b02565b601f811161090d575b50602093601f81116001146108a9578061079d94955f9161089e575b508160011b915f199060031b1c19161790555b335f52600360205260405f2090610ae3565b815167ffffffffffffffff8111610505576107b88254610b02565b601f8111610859575b50602092601f82116001146107fd57928192935f926107f2575b50505f19600383901b1c191660019190911b179055005b0151905083806107db565b601f19821693835f52805f20915f5b8681106108415750836001959610610829575b505050811b019055005b01515f1960f88460031b161c1916905583808061081f565b9192602060018192868501518155019401920161080c565b825f5260205f20601f830160051c81019160208410610894575b601f0160051c01905b81811061088957506107c1565b5f815560010161087c565b9091508190610873565b905085015186610778565b601f19811694825f52805f20955f5b8181106108f5575095829160019361079d9798106108dd575b5050811b01905561078b565b8701515f1960f88460031b161c1916905586806108d1565b868301518855600190970196602092830192016108b8565b815f5260205f20601f860160051c81019160208710610948575b601f0160051c01905b81811061093d575061075c565b5f8155600101610930565b9091508190610927565b60405162461bcd60e51b815260206004820152601f60248201527f5472616e73616374696f6e206861736820616c7265616479206d6170706564006044820152606490fd5b60405162461bcd60e51b815260206004820152601960248201527f46696c6520686173682063616e6e6f7420626520656d707479000000000000006044820152606490fd5b6060810190811067ffffffffffffffff82111761050557604052565b90601f8019910116810190811067ffffffffffffffff82111761050557604052565b81601f820112156101515780359067ffffffffffffffff82116105055760405192610a4f601f8401601f1916602001856109f8565b8284526020838301011161015157815f926020809301838601378301015290565b9060406003198301126101515760043567ffffffffffffffff81116101515782610a9c91600401610a1a565b916024359067ffffffffffffffff821161015157610abc91600401610a1a565b90565b805180835260209291819084018484015e5f828201840152601f01601f1916010190565b6040518151909260209284929081908501845e82019081520301902090565b90600182811c92168015610b30575b6020831014610b1c57565b634e487b7160e01b5f52602260045260245ffd5b91607f1691610b11565b67ffffffffffffffff81116105055760051b60200190565b8051821015610b665760209160051b010190565b634e487b7160e01b5f52603260045260245ffd5b9060405191825f825492610b8d84610b02565b8084529360018116908115610bf85750600114610bb4575b50610bb2925003836109f8565b565b90505f9291925260205f20905f915b818310610bdc575050906020610bb2928201015f610ba5565b6020919350806001915483858901015201910190918492610bc3565b905060209250610bb294915060ff191682840152151560051b8201015f610ba556fea2646970667358221220a067980a2fc85943e803d97712a8acd7edacabf458039070360e3f19a776011064736f6c634300081d0033",
    "sourcePath": "/contracts/contracts/contracts/UserFileStorage.sol",
    "compiler": {
        "name": "solc",
        "version": "0.8.29+commit.ab55807c"
    },
    "functionHashes": {
        "getAllFileHashes()": "8d95cd70",
        "getFileHashByTransaction(string)": "eadca3c9",
        "getUserFile(uint256)": "ff04367a",
        "getUserFileCount()": "fe8712e7",
        "getUserFileHashByTransaction(string)": "9b7ae6d2",
        "mapTransactionToIPFS(string,string)": "0570e914",
        "uploadFile(string,string)": "996d50bf"
    },
    "gasEstimates": {
        "creation": {
            "codeDepositCost": "630400",
            "executionCost": "671",
            "totalCost": "631071"
        },
        "external": {
            "getAllFileHashes()": "infinite",
            "getFileHashByTransaction(string)": "infinite",
            "getUserFile(uint256)": "infinite",
            "getUserFileCount()": "2417",
            "getUserFileHashByTransaction(string)": "infinite",
            "mapTransactionToIPFS(string,string)": "infinite",
            "uploadFile(string,string)": "infinite"
        }
    }
}